S01700004763634170706C69636174696F6E312E737265635B
S11300000C942A000C9434000C9434000C943400A6
S11300100C9434000C9434000C9434000C9434008C
S11300200C9434000C9434000C9434000C9434007C
S11300300C9434000C9434000C9434000C9434006C
S11300400C9434000C9434000C9434000C9434005C
S11300500C94340011241FBECFE5D8E0DEBFCDBF21
S11300600E9436000C946A000C94000080E884BF5F
S113007084BF1ABA17BA8FEF84BB15BA80E090E038
S11300807FE060E050E040E029B336B320FF11C0C8
S113009001968031910511F4852F942F85BB2FE3B0
S11300A03DE0E3E021503040E040E1F700C00000D3
S11300B0EBCF30FFE9CF019710F4872F962F85BB44
S11300C03FE3EDE023E03150E0402040E1F700C0A1
S10B00D00000DACFF894FFCF21
S9030000FC
